:020000040000FA
:020000001E28B8
:040002000034003492
:08000800FF00030E8301FB0061
:100010000A08FC008A010C1910298B18F0280C180A
:100020002D290B1936298C1AB4290C1B82297C081E
:100030008A007B0E8300FF0E7F0E0900A501A4013C
:10004000831603133F30850001308600803087001F
:10005000C730810065308C006730990026309800E9
:1000600002309F008312031391309F0086018101AB
:100070008E018F01031E25141C3087003030900044
:100080009701903098000715871487150716A1016E
:10009000AF30A0001030A2002630A300E830B0003E
:1000A0000330B1000B30B700B830B6007530B50082
:1000B0003030B4000030C000C030BF001730B30093
:1000C0004D30B2000030B8001830BC004B30B900E1
:1000D0009030BE00FF30BB000530F100AA01CB011B
:1000E0000A30CA00C501C801AD01EE01EA01EB0109
:1000F000EC01ED01F201F0308B000730AF001F156D
:100100001F198028A417302385286400721C9128A9
:1001100083160313981C8F288312031398288312C5
:100120000313F218B128F21951237219A728852850
:100130002108230203197E29031C7E29210884003B
:10014000203084070008C5079900A10A9128721180
:100150000F30B300700E0F39B307700EF039B200D4
:10016000E521F210C030D7002730D8000930D9007F
:100170008B137708D5007808D6008B17D508031D98
:10018000C428D6080319ED28612258080319CB2882
:10019000FF30AD0085286A306E0784005708800064
:1001A000EE03031CD5280330EE00FA016A086B0742
:1001B0000318FA0A6C070318FA0A6D070318FA0AFB
:1001C000AD00FA0CAD0CFA0CAD0C2D08103C031C64
:1001D000EB282410ED2824148528AD01241085284F
:1001E00010108B100E08F7000F08F8008E018F0119
:1001F000101481309F00061A251586140716F21474
:10020000C8010310310C03399600300C9500241CF2
:10021000960A0A3097000616E223A41A32291728F4
:100220000C11970191309F0086181A29061A32295D
:10023000A51517282F08031D21290F302E02031C96
:10024000322986102F0C2E0C95070318960A2F0CB6
:100250007F3996070A309700172810100C10F210FB
:10026000AD01241097018610061217280B11C80F34
:100270003A290712F40B3F290A30F40072141F19AF
:100280006D29F10B45290530F1000C137108013A75
:10029000031D4D2991309F006B297108023A031DFF
:1002A000542999309F006B297108033A031D5B297B
:1002B000A1309F006B2924186D297108043A031D91
:1002C000642981309F006B297108053A031D6B2951
:1002D00089309F006B2975211F15F21517281430DE
:1002E000F6007521F60B71290800FF30F500F50BBB
:1002F0007729080083120313A5140800A101C50182
:10030000721085280C131F1917281F08913A031D16
:100310008B29BA2117281F08893A031D9C292A080E
:10032000CB001E08AA001E3C031C992924150715A2
:100330009B292411071117281F08813A031DA3299F
:100340001E08A90017281F08993A031DAA291E088C
:10035000AC0017281F08A13A031D17281E08BA0071
:100360007F30F000721517288C121A08C13A031951
:10037000002817281E088B3EAB3E0318DF29753076
:100380009E021E083F3CA414031CA41083160313F2
:100390009E0D831203139E0D1E08A700A41CE129C5
:1003A000831603139E0D831203139E0DFF301E064A
:1003B0009E061E061E02A800871D8715080025162A
:1003C000A410A8018719871108002C08963C031C6B
:1003D000452A57302C02031D031C4A2AF213FA0047
:1003E0003F3C0F39E600FA1A112A7A1A042A06301D
:1003F000073CD1000318F21740306C3CD20040306B
:10040000E4000630E3002D2AB030403CD100031850
:10041000F2170430063CD200B030E4000430E300B0
:100420002D2A7A1A202A7030B03CD100031CF21712
:100430000330043CD2007030E4000330E3002D2A86
:10044000C630703CD1000318F2170230033CD200D2
:10045000C630E4000230E3002D2AF21BD20300254F
:10046000D30CD20CD10CD30CD20CD10CD30CD20C9B
:10047000D10CD30CD20CD10C51086407B000031876
:10048000D20A52086307B10008000230B100C6303A
:10049000B00008000730B1006C30B00008008312D3
:1004A0008D0083160C1483120C088B018D008C00B8
:1004B00083160C1555308D00AA308D008C140C124B
:1004C0008312DF01E101E201D401DA01DB01DC0189
:1004D000F03056050319732A5908E1005808DF0067
:1004E0000230DE00962AD6080319872AF030590513
:1004F000E100E10E0F305905DF00DF0EF030580546
:10050000E200620EDF04E2010330DE00962AF030E2
:1005100055050319902A5908DF000430DE00962A99
:10052000F0305905DF00DF0E0530DE00F2226518DD
:100530009B2AD40A962A5508DF07031CA22AE10F3A
:10054000A22AE20A5608E107031CA72AE20A0310BE
:100550005E0C84005A3084075E1CB12A540E80045D
:10056000B32A54088004DE03FF305E02031DB92A5B
:10057000D92A0310DF0DE10DE20D0310DF0DE10DAF
:10058000E20D0310DF0DE10DE20D0310DF0DE10DB3
:10059000E20D03105E0C8400573084075E18D42AE5
:1005A0000F300005DF04D72A000E0F39DF04D40115
:1005B000962A0310D60CD50C56086102031CEB2AB0
:1005C000031DE62A55085F02031CEB2ADA0FEB2A0B
:1005D000DB0FEB2ADC0A5A08D7005B08D8005C085E
:1005E000D900080065105508DF020318012BE1034C
:1005F000FF306102031D012BE203FF306202031989
:1006000065145608E10203180800E203FF30620295
:10061000031965140800E801E9016608031067186A
:10062000E807E80CE90CE718E807E80CE90C67199B
:10063000E807E80CE90CE719E807E80CE90C671A89
:10064000E807E80CE90CE71AE807E80CE90C671B77
:10065000E807E80CE90CE71BE807E80CE90C0034B4
:100660007830A600BA236F21A60B322B8B146F2192
:100670002808E6005530E7000B236808193EF30010
:10068000721608009E2326087302031D031C7212B3
:10069000080003103A0C2602031C9E2B031DB42BEA
:1006A0000800F211721A422B051A492B241C08006B
:1006B000A81B7D2BA41B7D2B22302D0203186D2B34
:1006C000093E031C6B2B22302D02D523C70A470895
:1006D0004902031D031C9E230800241D08002D0849
:1006E000233C03180800203E031C7B2BCA0B080088
:1006F0002D08223CC823B423080032302D020318F1
:100700008E2B093E031C8C2B32302D02D523C70AB9
:1007100047084902031D031C9E230800241D0800EE
:100720002D08333C03180800203E031C9C2BCA0BE9
:1007300008002D08323CC823B4230800C701FE304E
:10074000CA002608783C031C0800A60A061DAE2B2A
:10075000861DAC2B0611080086150800861DB22BDD
:100760008611080006150800063026020318031932
:100770000800A603061DC22B861DC02B861108008B
:1007800006110800861DC62B0615080086150800F0
:10079000023E031DCE2BFF30CA000800CA01CA1753
:1007A000043E03180800CA0CD02B013E031DDB2BAE
:1007B000FF30C9000800C901C917013E031808002D
:1007C000C90CDD2B2418012C2A089A3C0318EB2BAA
:1007D000AF01AE01002CD2012808E6003608340231
:1007E000D100031CD20A37083502D207002552086F
:1007F0003607AE000318D30A53083707AF00BD0110
:100800000800D201A81F232C281F142C2808E6005A
:10081000E61366133E083B02E7000B23690D680DE3
:10082000680D3E07C400422C2808E600E613661354
:1008300039083E02E7000B23E90DE80DE90D680DCC
:100840003907C400422C281F342C2808E600E61380
:1008500066133C083902E7000B23E90DE80DE90DAA
:10086000680D3C07C400422C2808E600E613661316
:1008700038083C02E7000B23E90DE80DE90D680D8F
:100880003807C4001F15A41F492CBD03BD1B702CC5
:10089000A4134B082A02F900031C622C0319672CCD
:1008A000053C0318672C0310F90D3D087F397902C8
:1008B00003195E2C031C5E2C7908BD008714A41557
:1008C000BD17702CFF3C803CBD002416702C3D08E9
:1008D00003196D2CBD03BD1B5E2C8710A4112412BF
:1008E000FC25C3002A08CC3C0318812CA418812CB9
:1008F00064302D02031C812CB330D1000030D200B3
:10090000892C2908993C0318922C9D30D100003085
:10091000D200871424174308E6000025510D520D1C
:10092000C300932C24131F19932C1E08A9000F3EFB
:10093000031C9C2CF030A5160F3029020318A22CA2
:100940001130A516A41F241DB82CA81BB82CA41A5E
:10095000B12C2D083C3C0318B82CA416AF01AE01F5
:10096000FB2C37302D02031CB82CAF01AE01FB2C41
:10097000A41207302902E6003208D1003308D20061
:1009800000255208AE005308AF0089309F0043088D
:10099000E6002E08D1002F08D2000025510D520D7F
:1009A0005208AE00530D5308AF00A41CE52CC40C34
:1009B000C4174408E6002E08D1002F08D2000025F5
:1009C000510D520DAE00530DAF00A41BEB2CA41D16
:1009D000241AEB2CF72C3D08E6002E08D1002F0836
:1009E000D2000025510D520DAE00530DAF00A412E0
:1009F0001F15E521080089309F0075211F1508008B
:100A0000CD01CE01CF01D001D3010830CC00E60CDE
:100A1000031C182D5108CE07031C112DCF0F112DCB
:100A2000D30A5208CF07031C162DD30A4D08D3074B
:100A3000CC0B1B2D202D0310D10DD20DCD0D072D6C
:100A40004E08D1004F08D2000800E5105508CD022D
:100A50000318342DCF03FF304F02031D342DD00374
:100A6000FF3050020319E5145608CF02031808009E
:0C0A7000D003FF3050020319E514080009
:080BF80006308A002D0882007E
:100C000090349F349F349F349F349F349F349F345B
:100C10009F349F349F349F349F349F349F349F343C
:100C20009F34A134A334A434A634A834AA34AB34FA
:100C3000AD34AD34AD34AD34AD34AD34AD34AD34AC
:100C4000AD34AD34AD34AD34AE34AE34AE34AE3498
:100C5000AE34AE34AE34AE34AE34AE34AE34AE3484
:100C6000AE34AE34AE34AE34AE34AE34AE34AE3474
:100C7000AE34AE34AE34AE34AE34AE34AE34AE3464
:100C8000AE34AE34AF34AF34AF34AF34AF34B0344D
:100C9000B034B034B034B134B134B134B134B2342E
:100CA000B234B234B234B234B334B334B334B33410
:100CB000B434B434B434B534B534B634B634B734EB
:100CC000B734B734B834B834B934B934B934BA34C1
:100CD000BA34BB34BB34BB34BC34BC34BD34BD3497
:100CE000BD34BE34BE34BE34BE34BE34BE34BF3474
:100CF000BF34BF34BF34BF34C034C034C034C13457
:100D0000C134C134C134C134C234C234C234C23437
:100D1000C234C234C234C234C234C234C234C23423
:100D2000C234C234C234C234C234C234C234C23413
:100D3000C234C234C234C234C234C234C234C23403
:100D4000C234C234C234C234C234C234C234C234F3
:100D5000C234C234C234C234C234C234C234C234E3
:100D6000C234C234C234C234C234C234C234C234D3
:100D7000C234C234C234C234C234C234C234C234C3
:100D8000C234C134C134C134C134C134C134C134BA
:100D9000C134C134C134C034C034C034C034C034B0
:100DA000C034BF34BF34BE34BE34BE34BD34BD34B1
:100DB000BD34BC34BC34BB34BB34BB34BA34BA34B9
:100DC000B934B934B934B834B834B734B734B734C3
:100DD000B634B634B534B434B434B334B334B234D2
:100DE000B234B234B134B134B034B034AF34AF34DF
:100DF000AE34AE34AD34AD34AC34AC34AB34AA34F0
:02400E00323F3F
:104200000800040002000100030005000700080088
:064210000600040002009C
:00000001FF
