:020000040000FA
:020000001E28B8
:040002000034003492
:08000800FE00030E8301FC0061
:100010000A08FD008A010C194B298B1823290C189A
:1000200069290C1BFE290B197B298C1A572A7D087C
:100030008A007C0E8300FE0E7E0E0900A501A4013D
:10004000BA01831603133F308500013086008030EB
:100050008700C730810065308C00673099002630FA
:10006000980002309F008E1C37280E1CEA218E1447
:100070000E148312031391309F0081018E018F01B2
:10008000031E2514870186013030900097019030BF
:10009000980064000716A101AF30A0001030A20044
:1000A0002630A3007030B0000330B1000030B5003E
:1000B000C030B4001130B3009430B2000030B8004A
:1000C0001830BC004B30B9009030BE00FF30BB0090
:1000D000F001AA01CB01CA01C701C501C801AD01E8
:1000E000A8010430EA0083160313A101A201A301B1
:1000F000A4010430A900A501A601A701A80183124B
:100100000313F101F201831603130130AC00013037
:10011000AD00831203131330AF008830AE00E72127
:100120001F151F1991285A220C13A417F0308B00A9
:10013000FD238B149B28640083120313711CAA28CF
:1001400083160313981CA72883120313BF2083125E
:100150000313AC2898181816F11BD524F118E028C1
:10016000F1192624F11AAA217119D0287218CE206B
:10017000711B8F22981C9B28181218169B28210887
:1001800023020319F029031CF029210884002030E0
:1001900084070008C5079900A10A0800721008002A
:1001A0007111051ADF280530B300DC30B200420EB1
:1001B000F039B2070318B30A420E0F39B3079B2870
:1001C000F1100030D7002730D8000930D9000B12C9
:1001D0007708D5007808D6000B16D508031DF3283C
:1001E000D60803191F292D2358080319F928FF30B1
:1001F000D700A0306A07840057088000EA0B022964
:100200000430EA00FA0183160313210822070318B9
:10021000FA0A23070318FA0A24070318FA0A8312B2
:100220000313AD00FA0CAD0CFA0CAD0C2D08103C0C
:10023000031D031C1D292410202924149B28AD0113
:10024000A41724109B2810108B100E08F7000F081D
:10025000F8008E018F0110140C1381309F00061AD4
:1002600025158614F114C8010310310C03399600CA
:10027000300C9500241C960A0A3097000616F117D8
:1002800000000000000000000000000007161F151D
:10029000A41A722917280C119701A41A722986181A
:1002A0005529061A7229A515172886102F08031D2F
:1002B0005D290F302E02031C72292F0C2E0C95077E
:1002C0000318960A03102F0C7F3996070A309700FF
:1002D000172810100C10F1108F018E017116AD014E
:1002E0002410A4179701061200000000000000006F
:1002F0000000861017280B1163308100C80F812978
:100300000712F40B87290A30F40018127114241C08
:10031000F115E5198E29F115E5158F29E511F1166D
:1003200083160313AC0BA729AD0803199929AD0B4C
:10033000A7291730AD007030AC007214AE0BA7299E
:100340003C30AE0083120313B60FA729B70A8312FD
:10035000031317281F1908000C13F112F00BB22910
:100360000530F0007008013A031DB929A1309F0043
:10037000D7297008023A031DC02999309F00D72958
:100380007008033A031DC72991309F00D72924180C
:1003900008007008043A031DD02981309F00D72936
:1003A0007008053A031DD72989309F00D729E72116
:1003B0001F1508001430F6006400E2216400F60BFB
:1003C000DD290800FF30F500F50BE429080019309D
:1003D000F500E42983120313A51483160313080000
:1003E00083120313A101C5017110080008308A00AF
:1003F0007A08820009308A007B0882000C131F19DA
:1004000017281F08913A031D072A5A2217281F0888
:10041000893A031D182A2A08CB001E08AA001E3C90
:10042000031C152A2415071517282411071117284E
:100430001F08813A031D292A1E08A9000F3E031C2C
:10044000222AA5160530290203181728241DA516EF
:1004500017281F08993A031D372A1E08241CAC00D0
:1004600083160313AA0083120313711717281F089A
:10047000A13A031D17281E08C2007115C039031DBB
:10048000542A831603139E0D831203139E0D8316A5
:1004900003139E0D831203131E0DFB002513FA2177
:1004A000AB008A110A12172800302517502A8C1227
:1004B0001A0817281E088B3EAB3E0318862A753093
:1004C0009E021E083F3CA414031CA4101E083D3CC1
:1004D0000318A4140310831603139E0D8312031331
:1004E0009E0D1E08A700A41C8A2A0310831603135E
:1004F0009E0D831203139E0DFF301E069E061E06E0
:100500001E02A800871D8715251208002516A410B5
:10051000A7018B2A2512A8018719871108007117D6
:100520002418B42A83160313A430290784008316E1
:1005300003132A088000A90B9F2A0430A900FA019E
:1005400083160313250826070318FA0A270703183A
:10055000FA0A28070318FA0A83120313AC00FA0CEC
:10056000AC0CFA0CAC0C2C082C08963C031C052B8C
:1005700057302C02031D031C0A2BFA000F390F3CC5
:10058000E600FA1AD72A7A1ACE2A8630D10001302C
:10059000D200E630E4000530E300EB2A9A30D100C7
:1005A0000130D2004C30E4000430E300EB2A7A1A28
:1005B000E22ADC30D1000030D2007030E400033099
:1005C000E300EB2AB430D1000030D200BC30E400AC
:1005D0000230E300EB2AF8250310D30CD20CD10C27
:1005E0000310D30CD20CD10C0310D30CD20CD10CB1
:1005F0000310D30CD20CD10C51086407B0000318BF
:10060000D20A52086307B10008000230B100BC30C2
:10061000B00008000730B1006C30B0000800831251
:1006200003178D00831203130800831603170C149D
:10063000831203170C088312031308008B138C001A
:10064000831603178C1455308D00AA308D008C143E
:100650000C12831203138B170800DF01E101E20182
:10066000D401DA01DB01DC01F030560503193F2B20
:100670005908E1005808DF000230DE00622BD6087E
:100680000319532BF0305905E100E10E0F305905E5
:10069000DF00DF0EF0305805E200620EDF04E201F9
:1006A0000330DE00622BF030550503195C2B59082E
:1006B000DF000430DE00622BF0305905DF00DF0E72
:1006C0000530DE006400BF236518682BD40A622B56
:1006D0005508DF07031C6F2BE10F6F2BE20A56084A
:1006E000E107031C742BE20A03105E0C84005A30ED
:1006F00084075E1C7E2B540E8004802B54088004DB
:10070000DE03FF305E02031D862BA62B0310DF0DD8
:10071000E10DE20D0310DF0DE10DE20D0310DF0D21
:10072000E10DE20D0310DF0DE10DE20D03105E0C93
:100730008400573084075E18A12B0F300005DF04BA
:10074000A42B000E0F39DF04D401622B0310D60C4A
:10075000D50C56086102031CB82B031DB32B55089A
:100760005F02031CB82BDA0FB82BDB0FB82BDC0AA7
:100770005A08D7005B08D8005C08D900080065104B
:100780005508DF020318CE2BE103FF306102031D81
:10079000CE2BE203FF306202031965145608E10212
:1007A00003180800E203FF30620203196514080011
:1007B000E801E901660803106718E807E80CE90C8E
:1007C000E718E807E80CE90C6719E807E80CE90CFA
:1007D000E719E807E80CE90C671AE807E80CE90CE8
:1007E000E71AE807E80CE90C671BE807E80CE90CD6
:1007F000E71BE807E80CE90C00347830A600AD24CC
:10080000DA21A60BFF2B71161930F300080024180B
:10081000172C00002808E6002808E700D8236808FD
:10082000E6004B30E700D8236808193EF300902417
:1008300026087302031D031C711208000310420CEA
:100840002602031C902C031DA42C0800F111711A20
:10085000072C051A1E2C241C08001430260203182D
:10086000352C6519352C65150800651124193C2CAB
:100870001A302602031C902C573028020318692CCA
:10088000A41B692C21302D020318542CCA01093EE7
:10089000031C522C21302D02C824C70A47084902E4
:1008A000031D031C90240800C701241D08002430E8
:1008B0002D02031D031C0800203C031C672C2D087F
:1008C000243CBB24CA0A4A084902031D031CA42471
:1008D000080030302D0203187B2CCA01093E031C8E
:1008E000522C30302D02C824C70A47084902031D84
:1008F000031C90240800C701241D080034302D0279
:10090000031D031C0800203C031C8E2C2D08343CC6
:10091000BB24CA0A4A084902031D031CA424080078
:10092000C7012608783C031C0800A60A061D9E2C59
:10093000861D9C2C0611080086150800861DA22C19
:100940008611080006150800CA010830A4180830EE
:100950002602031803190800A603061DB52C861DE0
:10096000B32C8611080006110800861DB92C061547
:10097000080086150800013E031DC12CFF30C90088
:100980000800C901C917023E03180800C90CC32C8E
:10099000013E031DCE2CFF30C9000800C901C91754
:1009A000013E03180800C90CD02CF1132418F82CB0
:1009B00024132A089A3C0318E02CAF01AE0108006A
:1009C0002808E6002808E700D8236808E600D201D6
:1009D0007830D1006930D200F8255208B83EAE0018
:1009E0000318D30A53080B3EAF00BD0125110800C0
:1009F000D201A81F1A2D281F0B2D2808E600E61388
:100A000066133E083B02E700D823690D680D680DA8
:100A10003E07C400392D2808E600E613661339089E
:100A20003E02E700D823E90DE80DE90D680D39070E
:100A3000C400392D281F2B2D2808E600E613661365
:100A40003C083902E700D823E90DE80DE90D680DEF
:100A50003C07C400392D2808E600E6136613380861
:100A60003C02E700D823E90DE80DE90D680D3807D1
:100A7000C400C40CC417A41F412DBD03BD1B6A2DA7
:100A8000A4134B082A02F900031C5C2D0319612DE5
:100A9000053C0318612D0310F90C0310F90C3D08F7
:100AA0007F3979020319582D031C582D7908BD0090
:100AB0008616A415BD176A2DFF3C803CBD00241688
:100AC0006A2D3D080319672DBD03BD1B582D8612E5
:100AD000A41124122D08FA00F621C3008A110A126B
:100AE0002A08CC3C03187F2DA4187F2D64302D02DA
:100AF000031C7F2DB330D1000030D200872D290890
:100B0000993C0318902D9D30D1000030D2008616FC
:100B100024174308E600F825510D520DC300912D0E
:100B20002413A41F241DA72DA81BA72DA41AA02D94
:100B30002D08443C0318A72DA416AF01AE01F32DD8
:100B40003F302D02031CA72DAF01AE01F32DA412DF
:100B50006511D201263029070318D20AD100F230DC
:100B6000E600F825D3080319B72DFF30D20052084C
:100B7000E6005208C1003208D1003308D200F8253F
:100B80005208AE005308AF004308E6002E08D1001B
:100B90002F08D200F825510D520D5208AE00530D0A
:100BA0005308AF00A41CE02D4408E6002E08D10035
:100BB0002F08D200F825510D520DAE00530DAF0095
:100BC000A41BE62DA41D241AE62DF22D3D08E600F7
:100BD0002E08D1002F08D200F825510D520DAE007D
:100BE000530DAF00A41289309F00E7211F150800A4
:100BF000CD01CE01CF01D001D3010830CC00E60CED
:100C0000031C102E5108CE07031C092ECF0F092EEE
:100C1000D30A5208CF07031C0E2ED30A4D08D30760
:100C2000CC0B132E182E0310D10DD20DCD0DFF2D90
:100C30004E08D1004F08D2000800E5105508CD023B
:100C400003182C2ECF03FF304F02031D2C2ED00390
:100C5000FF3050020319E5145608CF0203180800AC
:0C0C6000D003FF3050020319E514080017
:1010000090349F349F349F349F349F349F349F3457
:101010009F349F349F349F349F349F349F349F3438
:101020009F34A134A334A434A634A834AA34AB34F6
:10103000AD34AD34AD34AD34AD34AD34AD34AD34A8
:10104000AD34AD34AD34AD34AE34AE34AE34AE3494
:10105000AE34AE34AE34AE34AE34AE34AE34AE3480
:10106000AE34AE34AE34AE34AE34AE34AE34AE3470
:10107000AE34AE34AE34AE34AE34AE34AE34AE3460
:10108000AE34AE34AF34AF34AF34AF34AF34B03449
:10109000B034B034B034B134B134B134B134B2342A
:1010A000B234B234B234B234B334B334B334B3340C
:1010B000B434B434B434B534B534B634B634B734E7
:1010C000B734B734B834B834B934B934B934BA34BD
:1010D000BA34BB34BB34BB34BC34BC34BD34BD3493
:1010E000BD34BE34BE34BE34BE34BE34BE34BF3470
:1010F000BF34BF34BF34BF34C034C034C034C13453
:10110000C134C134C134C134C234C234C234C23433
:10111000C234C234C234C234C234C234C234C2341F
:10112000C234C234C234C234C234C234C234C2340F
:10113000C234C234C234C234C234C234C234C234FF
:10114000C234C234C234C234C234C234C234C234EF
:10115000C234C234C234C234C234C234C234C234DF
:10116000C234C234C234C234C234C234C234C234CF
:10117000C234C234C234C234C234C234C234C234BF
:10118000C234C134C134C134C134C134C134C134B6
:10119000C134C134C134C034C034C034C034C034AC
:1011A000C034BF34BF34BE34BE34BE34BD34BD34AD
:1011B000BD34BC34BC34BB34BB34BB34BA34BA34B5
:1011C000B934B934B934B834B834B734B734B734BF
:1011D000B634B634B534B434B434B334B334B234CE
:1011E000B234B234B134B134B034B034AF34AF34DB
:1011F000AE34AE34AD34AD34AC34AC34AB34AA34EC
:10120000DC34D734D234CD34C834C334BD34B834EC
:10121000B334AE34A934A4349F349D349C349B340D
:101220009A34983497349634943494349434933470
:10123000933493349234923492349234913491347E
:1012400091349034903490348F348F348F348E3482
:101250008E348E348D348D348D348C348C348C3487
:101260008B348B348B348A348A348934893488348F
:10127000883488348734873486348634853485349A
:1012800084348434833483348334823482348134A8
:101290008134803480347F347F347E347E347D34B6
:1012A0007D347D347C347C347B347B347A347A34C2
:1012B00079347934783478347834773477347634D0
:1012C00076347634763476347534753475347534D2
:1012D00075347534753475347534753475347534C6
:1012E00074347434743474347434743474347434BE
:1012F00074347434743474347434733473347334B1
:1013000073347334733473347334733473347334A5
:10131000733472347234723472347234723472349C
:10132000723472347234723472347234713471348F
:101330007134713471347134713471347134713485
:10134000713470346F346E346D346C346C346A3490
:1013500069346834663465346434633461345F34CA
:101360005C345A3461345F345C345A344D344A341A
:10137000483445344334423441343F343E343D34C0
:101380003C343B343A3439343834373435343434FB
:101390003234313430342E342D342D342C342C343A
:1013A0002B342A342A342934283428342734263458
:1013B0002634253424342434233423342234213471
:1013C000213420341F341F341E341D341D341C348A
:1013D0001C341B341A341A341934183418341734A2
:1013E00016341634153414341434133413341234BC
:1013F0001134113410340F340F340E340D340D34D5
:02400E00763FFB
:104200000800040002000100030005000700080088
:064210000600040002009C
:1043E00000000000020000000000020000000000C9
:0443F00000000000C9
:00000001FF
